{
  "_format": "hh-sol-artifact-1",
  "contractName": "FractionalNFTMarketplace",
  "sourceName": "contracts/FractionalNFTMarketplace.sol",
  "abi": [
    {
      "inputs": [],
      "stateMutability": "nonpayable",
      "type": "constructor"
    },
    {
      "inputs": [],
      "name": "ERC721EnumerableForbiddenBatchMint",
      "type": "error"
    },
    {
      "inputs": [
        {
          "internalType": "address",
          "name": "sender",
          "type": "address"
        },
        {
          "internalType": "uint256",
          "name": "tokenId",
          "type": "uint256"
        },
        {
          "internalType": "address",
          "name": "owner",
          "type": "address"
        }
      ],
      "name": "ERC721IncorrectOwner",
      "type": "error"
    },
    {
      "inputs": [
        {
          "internalType": "address",
          "name": "operator",
          "type": "address"
        },
        {
          "internalType": "uint256",
          "name": "tokenId",
          "type": "uint256"
        }
      ],
      "name": "ERC721InsufficientApproval",
      "type": "error"
    },
    {
      "inputs": [
        {
          "internalType": "address",
          "name": "approver",
          "type": "address"
        }
      ],
      "name": "ERC721InvalidApprover",
      "type": "error"
    },
    {
      "inputs": [
        {
          "internalType": "address",
          "name": "operator",
          "type": "address"
        }
      ],
      "name": "ERC721InvalidOperator",
      "type": "error"
    },
    {
      "inputs": [
        {
          "internalType": "address",
          "name": "owner",
          "type": "address"
        }
      ],
      "name": "ERC721InvalidOwner",
      "type": "error"
    },
    {
      "inputs": [
        {
          "internalType": "address",
          "name": "receiver",
          "type": "address"
        }
      ],
      "name": "ERC721InvalidReceiver",
      "type": "error"
    },
    {
      "inputs": [
        {
          "internalType": "address",
          "name": "sender",
          "type": "address"
        }
      ],
      "name": "ERC721InvalidSender",
      "type": "error"
    },
    {
      "inputs": [
        {
          "internalType": "uint256",
          "name": "tokenId",
          "type": "uint256"
        }
      ],
      "name": "ERC721NonexistentToken",
      "type": "error"
    },
    {
      "inputs": [
        {
          "internalType": "address",
          "name": "owner",
          "type": "address"
        },
        {
          "internalType": "uint256",
          "name": "index",
          "type": "uint256"
        }
      ],
      "name": "ERC721OutOfBoundsIndex",
      "type": "error"
    },
    {
      "inputs": [
        {
          "internalType": "address",
          "name": "owner",
          "type": "address"
        }
      ],
      "name": "OwnableInvalidOwner",
      "type": "error"
    },
    {
      "inputs": [
        {
          "internalType": "address",
          "name": "account",
          "type": "address"
        }
      ],
      "name": "OwnableUnauthorizedAccount",
      "type": "error"
    },
    {
      "anonymous": false,
      "inputs": [
        {
          "indexed": true,
          "internalType": "address",
          "name": "owner",
          "type": "address"
        },
        {
          "indexed": true,
          "internalType": "address",
          "name": "approved",
          "type": "address"
        },
        {
          "indexed": true,
          "internalType": "uint256",
          "name": "tokenId",
          "type": "uint256"
        }
      ],
      "name": "Approval",
      "type": "event"
    },
    {
      "anonymous": false,
      "inputs": [
        {
          "indexed": true,
          "internalType": "address",
          "name": "owner",
          "type": "address"
        },
        {
          "indexed": true,
          "internalType": "address",
          "name": "operator",
          "type": "address"
        },
        {
          "indexed": false,
          "internalType": "bool",
          "name": "approved",
          "type": "bool"
        }
      ],
      "name": "ApprovalForAll",
      "type": "event"
    },
    {
      "anonymous": false,
      "inputs": [
        {
          "indexed": false,
          "internalType": "uint256",
          "name": "tokenId",
          "type": "uint256"
        },
        {
          "indexed": false,
          "internalType": "address",
          "name": "buyer",
          "type": "address"
        },
        {
          "indexed": false,
          "internalType": "uint256",
          "name": "fractions",
          "type": "uint256"
        }
      ],
      "name": "FractionBought",
      "type": "event"
    },
    {
      "anonymous": false,
      "inputs": [
        {
          "indexed": false,
          "internalType": "uint256",
          "name": "tokenId",
          "type": "uint256"
        },
        {
          "indexed": false,
          "internalType": "address",
          "name": "seller",
          "type": "address"
        },
        {
          "indexed": false,
          "internalType": "uint256",
          "name": "fractions",
          "type": "uint256"
        },
        {
          "indexed": false,
          "internalType": "uint256",
          "name": "amount",
          "type": "uint256"
        }
      ],
      "name": "FractionSold",
      "type": "event"
    },
    {
      "anonymous": false,
      "inputs": [
        {
          "indexed": true,
          "internalType": "address",
          "name": "previousOwner",
          "type": "address"
        },
        {
          "indexed": true,
          "internalType": "address",
          "name": "newOwner",
          "type": "address"
        }
      ],
      "name": "OwnershipTransferred",
      "type": "event"
    },
    {
      "anonymous": false,
      "inputs": [
        {
          "indexed": false,
          "internalType": "uint256",
          "name": "tokenId",
          "type": "uint256"
        },
        {
          "indexed": false,
          "internalType": "address",
          "name": "owner",
          "type": "address"
        },
        {
          "indexed": false,
          "internalType": "uint256",
          "name": "fractions",
          "type": "uint256"
        },
        {
          "indexed": false,
          "internalType": "uint256",
          "name": "price",
          "type": "uint256"
        }
      ],
      "name": "PropertyListed",
      "type": "event"
    },
    {
      "anonymous": false,
      "inputs": [
        {
          "indexed": true,
          "internalType": "address",
          "name": "from",
          "type": "address"
        },
        {
          "indexed": true,
          "internalType": "address",
          "name": "to",
          "type": "address"
        },
        {
          "indexed": true,
          "internalType": "uint256",
          "name": "tokenId",
          "type": "uint256"
        }
      ],
      "name": "Transfer",
      "type": "event"
    },
    {
      "inputs": [
        {
          "internalType": "address",
          "name": "to",
          "type": "address"
        },
        {
          "internalType": "uint256",
          "name": "tokenId",
          "type": "uint256"
        }
      ],
      "name": "approve",
      "outputs": [],
      "stateMutability": "nonpayable",
      "type": "function"
    },
    {
      "inputs": [
        {
          "internalType": "address",
          "name": "owner",
          "type": "address"
        }
      ],
      "name": "balanceOf",
      "outputs": [
        {
          "internalType": "uint256",
          "name": "",
          "type": "uint256"
        }
      ],
      "stateMutability": "view",
      "type": "function"
    },
    {
      "inputs": [
        {
          "internalType": "uint256",
          "name": "tokenId",
          "type": "uint256"
        },
        {
          "internalType": "uint256",
          "name": "fractions",
          "type": "uint256"
        }
      ],
      "name": "buyFraction",
      "outputs": [],
      "stateMutability": "payable",
      "type": "function"
    },
    {
      "inputs": [],
      "name": "getAllListings",
      "outputs": [
        {
          "components": [
            {
              "internalType": "uint256",
              "name": "tokenId",
              "type": "uint256"
            },
            {
              "internalType": "address",
              "name": "owner",
              "type": "address"
            },
            {
              "internalType": "uint256",
              "name": "totalFractions",
              "type": "uint256"
            },
            {
              "internalType": "uint256",
              "name": "pricePerFraction",
              "type": "uint256"
            },
            {
              "internalType": "uint256",
              "name": "availableFractions",
              "type": "uint256"
            }
          ],
          "internalType": "struct FractionalNFTMarketplace.Property[]",
          "name": "",
          "type": "tuple[]"
        }
      ],
      "stateMutability": "view",
      "type": "function"
    },
    {
      "inputs": [
        {
          "internalType": "uint256",
          "name": "tokenId",
          "type": "uint256"
        }
      ],
      "name": "getApproved",
      "outputs": [
        {
          "internalType": "address",
          "name": "",
          "type": "address"
        }
      ],
      "stateMutability": "view",
      "type": "function"
    },
    {
      "inputs": [
        {
          "internalType": "address",
          "name": "owner",
          "type": "address"
        },
        {
          "internalType": "address",
          "name": "operator",
          "type": "address"
        }
      ],
      "name": "isApprovedForAll",
      "outputs": [
        {
          "internalType": "bool",
          "name": "",
          "type": "bool"
        }
      ],
      "stateMutability": "view",
      "type": "function"
    },
    {
      "inputs": [
        {
          "internalType": "uint256",
          "name": "totalFractions",
          "type": "uint256"
        },
        {
          "internalType": "uint256",
          "name": "pricePerFraction",
          "type": "uint256"
        }
      ],
      "name": "listProperty",
      "outputs": [],
      "stateMutability": "nonpayable",
      "type": "function"
    },
    {
      "inputs": [],
      "name": "name",
      "outputs": [
        {
          "internalType": "string",
          "name": "",
          "type": "string"
        }
      ],
      "stateMutability": "view",
      "type": "function"
    },
    {
      "inputs": [],
      "name": "nextTokenId",
      "outputs": [
        {
          "internalType": "uint256",
          "name": "",
          "type": "uint256"
        }
      ],
      "stateMutability": "view",
      "type": "function"
    },
    {
      "inputs": [],
      "name": "owner",
      "outputs": [
        {
          "internalType": "address",
          "name": "",
          "type": "address"
        }
      ],
      "stateMutability": "view",
      "type": "function"
    },
    {
      "inputs": [
        {
          "internalType": "uint256",
          "name": "tokenId",
          "type": "uint256"
        }
      ],
      "name": "ownerOf",
      "outputs": [
        {
          "internalType": "address",
          "name": "",
          "type": "address"
        }
      ],
      "stateMutability": "view",
      "type": "function"
    },
    {
      "inputs": [
        {
          "internalType": "uint256",
          "name": "",
          "type": "uint256"
        }
      ],
      "name": "properties",
      "outputs": [
        {
          "internalType": "uint256",
          "name": "tokenId",
          "type": "uint256"
        },
        {
          "internalType": "address",
          "name": "owner",
          "type": "address"
        },
        {
          "internalType": "uint256",
          "name": "totalFractions",
          "type": "uint256"
        },
        {
          "internalType": "uint256",
          "name": "pricePerFraction",
          "type": "uint256"
        },
        {
          "internalType": "uint256",
          "name": "availableFractions",
          "type": "uint256"
        }
      ],
      "stateMutability": "view",
      "type": "function"
    },
    {
      "inputs": [],
      "name": "renounceOwnership",
      "outputs": [],
      "stateMutability": "nonpayable",
      "type": "function"
    },
    {
      "inputs": [
        {
          "internalType": "address",
          "name": "from",
          "type": "address"
        },
        {
          "internalType": "address",
          "name": "to",
          "type": "address"
        },
        {
          "internalType": "uint256",
          "name": "tokenId",
          "type": "uint256"
        }
      ],
      "name": "safeTransferFrom",
      "outputs": [],
      "stateMutability": "nonpayable",
      "type": "function"
    },
    {
      "inputs": [
        {
          "internalType": "address",
          "name": "from",
          "type": "address"
        },
        {
          "internalType": "address",
          "name": "to",
          "type": "address"
        },
        {
          "internalType": "uint256",
          "name": "tokenId",
          "type": "uint256"
        },
        {
          "internalType": "bytes",
          "name": "data",
          "type": "bytes"
        }
      ],
      "name": "safeTransferFrom",
      "outputs": [],
      "stateMutability": "nonpayable",
      "type": "function"
    },
    {
      "inputs": [
        {
          "internalType": "uint256",
          "name": "tokenId",
          "type": "uint256"
        },
        {
          "internalType": "uint256",
          "name": "fractions",
          "type": "uint256"
        }
      ],
      "name": "sellFraction",
      "outputs": [],
      "stateMutability": "nonpayable",
      "type": "function"
    },
    {
      "inputs": [
        {
          "internalType": "address",
          "name": "operator",
          "type": "address"
        },
        {
          "internalType": "bool",
          "name": "approved",
          "type": "bool"
        }
      ],
      "name": "setApprovalForAll",
      "outputs": [],
      "stateMutability": "nonpayable",
      "type": "function"
    },
    {
      "inputs": [
        {
          "internalType": "bytes4",
          "name": "interfaceId",
          "type": "bytes4"
        }
      ],
      "name": "supportsInterface",
      "outputs": [
        {
          "internalType": "bool",
          "name": "",
          "type": "bool"
        }
      ],
      "stateMutability": "view",
      "type": "function"
    },
    {
      "inputs": [],
      "name": "symbol",
      "outputs": [
        {
          "internalType": "string",
          "name": "",
          "type": "string"
        }
      ],
      "stateMutability": "view",
      "type": "function"
    },
    {
      "inputs": [
        {
          "internalType": "uint256",
          "name": "index",
          "type": "uint256"
        }
      ],
      "name": "tokenByIndex",
      "outputs": [
        {
          "internalType": "uint256",
          "name": "",
          "type": "uint256"
        }
      ],
      "stateMutability": "view",
      "type": "function"
    },
    {
      "inputs": [
        {
          "internalType": "address",
          "name": "owner",
          "type": "address"
        },
        {
          "internalType": "uint256",
          "name": "index",
          "type": "uint256"
        }
      ],
      "name": "tokenOfOwnerByIndex",
      "outputs": [
        {
          "internalType": "uint256",
          "name": "",
          "type": "uint256"
        }
      ],
      "stateMutability": "view",
      "type": "function"
    },
    {
      "inputs": [
        {
          "internalType": "uint256",
          "name": "tokenId",
          "type": "uint256"
        }
      ],
      "name": "tokenURI",
      "outputs": [
        {
          "internalType": "string",
          "name": "",
          "type": "string"
        }
      ],
      "stateMutability": "view",
      "type": "function"
    },
    {
      "inputs": [],
      "name": "totalSupply",
      "outputs": [
        {
          "internalType": "uint256",
          "name": "",
          "type": "uint256"
        }
      ],
      "stateMutability": "view",
      "type": "function"
    },
    {
      "inputs": [
        {
          "internalType": "address",
          "name": "from",
          "type": "address"
        },
        {
          "internalType": "address",
          "name": "to",
          "type": "address"
        },
        {
          "internalType": "uint256",
          "name": "tokenId",
          "type": "uint256"
        }
      ],
      "name": "transferFrom",
      "outputs": [],
      "stateMutability": "nonpayable",
      "type": "function"
    },
    {
      "inputs": [
        {
          "internalType": "address",
          "name": "newOwner",
          "type": "address"
        }
      ],
      "name": "transferOwnership",
      "outputs": [],
      "stateMutability": "nonpayable",
      "type": "function"
    }
  ],
  "bytecode": "0x608060405234801561001057600080fd5b5073ce96ece3147135d5f92d55c09ee038bcebfd21bf6040518060400160405280600d81526020017f4672616374696f6e616c4e4654000000000000000000000000000000000000008152506040518060400160405280600481526020017f664e46540000000000000000000000000000000000000000000000000000000081525081600090816100a19190610451565b5080600190816100b19190610451565b505050600073ffffffffffffffffffffffffffffffffffffffff168173ffffffffffffffffffffffffffffffffffffffff16036101265760006040517f1e4fbdf700000000000000000000000000000000000000000000000000000000815260040161011d9190610564565b60405180910390fd5b6101358161013b60201b60201c565b5061057f565b6000600a60009054906101000a900473ffffffffffffffffffffffffffffffffffffffff16905081600a60006101000a81548173ffffffffffffffffffffffffffffffffffffffff021916908373ffffffffffffffffffffffffffffffffffffffff1602179055508173ffffffffffffffffffffffffffffffffffffffff168173ffffffffffffffffffffffffffffffffffffffff167f8be0079c531659141344cd1fd0a4f28419497f9722a3daafe3b4186f6b6457e060405160405180910390a35050565b600081519050919050565b7f4e487b7100000000000000000000000000000000000000000000000000000000600052604160045260246000fd5b7f4e487b7100000000000000000000000000000000000000000000000000000000600052602260045260246000fd5b6000600282049050600182168061028257607f821691505b6020821081036102955761029461023b565b5b50919050565b60008190508160005260206000209050919050565b60006020601f8301049050919050565b600082821b905092915050565b6000600883026102fd7fffffffffffffffffffffffffffffffffffffffffffffffffffffffffffffffff826102c0565b61030786836102c0565b95508019841693508086168417925050509392505050565b6000819050919050565b6000819050919050565b600061034e6103496103448461031f565b610329565b61031f565b9050919050565b6000819050919050565b61036883610333565b61037c61037482610355565b8484546102cd565b825550505050565b600090565b610391610384565b61039c81848461035f565b505050565b5b818110156103c0576103b5600082610389565b6001810190506103a2565b5050565b601f821115610405576103d68161029b565b6103df846102b0565b810160208510156103ee578190505b6104026103fa856102b0565b8301826103a1565b50505b505050565b600082821c905092915050565b60006104286000198460080261040a565b1980831691505092915050565b60006104418383610417565b9150826002028217905092915050565b61045a82610201565b67ffffffffffffffff8111156104735761047261020c565b5b61047d825461026a565b6104888282856103c4565b600060209050601f8311600181146104bb57600084156104a9578287015190505b6104b38582610435565b86555061051b565b601f1984166104c98661029b565b60005b828110156104f1578489015182556001820191506020850194506020810190506104cc565b8683101561050e578489015161050a601f891682610417565b8355505b6001600288020188555050505b505050505050565b600073ffffffffffffffffffffffffffffffffffffffff82169050919050565b600061054e82610523565b9050919050565b61055e81610543565b82525050565b60006020820190506105796000830184610555565b92915050565b6134478061058e6000396000f3fe6080604052600436106101665760003560e01c806370b024d7116100d1578063ae73ccec1161008a578063d40b021411610064578063d40b02141461054e578063e985e9c51461056a578063f2fde38b146105a7578063f7b10808146105d057610166565b8063ae73ccec146104bd578063b88d4fde146104e8578063c87b56dd1461051157610166565b806370b024d7146103d3578063715018a6146103fc57806375794a3c146104135780638da5cb5b1461043e57806395d89b4114610469578063a22cb4651461049457610166565b80632f745c59116101235780632f745c591461028d57806342842e0e146102ca5780634eda529b146102f35780634f6ccce71461031c5780636352211e1461035957806370a082311461039657610166565b806301ffc9a71461016b57806306fdde03146101a8578063081812fc146101d3578063095ea7b31461021057806318160ddd1461023957806323b872dd14610264575b600080fd5b34801561017757600080fd5b50610192600480360381019061018d91906126d6565b610611565b60405161019f919061271e565b60405180910390f35b3480156101b457600080fd5b506101bd61068b565b6040516101ca91906127c9565b60405180910390f35b3480156101df57600080fd5b506101fa60048036038101906101f59190612821565b61071d565b604051610207919061288f565b60405180910390f35b34801561021c57600080fd5b50610237600480360381019061023291906128d6565b610739565b005b34801561024557600080fd5b5061024e61074f565b60405161025b9190612925565b60405180910390f35b34801561027057600080fd5b5061028b60048036038101906102869190612940565b61075c565b005b34801561029957600080fd5b506102b460048036038101906102af91906128d6565b61085e565b6040516102c19190612925565b60405180910390f35b3480156102d657600080fd5b506102f160048036038101906102ec9190612940565b610907565b005b3480156102ff57600080fd5b5061031a60048036038101906103159190612993565b610927565b005b34801561032857600080fd5b50610343600480360381019061033e9190612821565b610a50565b6040516103509190612925565b60405180910390f35b34801561036557600080fd5b50610380600480360381019061037b9190612821565b610ac6565b60405161038d919061288f565b60405180910390f35b3480156103a257600080fd5b506103bd60048036038101906103b891906129d3565b610ad8565b6040516103ca9190612925565b60405180910390f35b3480156103df57600080fd5b506103fa60048036038101906103f59190612993565b610b92565b005b34801561040857600080fd5b50610411610cfb565b005b34801561041f57600080fd5b50610428610d0f565b6040516104359190612925565b60405180910390f35b34801561044a57600080fd5b50610453610d15565b604051610460919061288f565b60405180910390f35b34801561047557600080fd5b5061047e610d3f565b60405161048b91906127c9565b60405180910390f35b3480156104a057600080fd5b506104bb60048036038101906104b69190612a2c565b610dd1565b005b3480156104c957600080fd5b506104d2610de7565b6040516104df9190612ba1565b60405180910390f35b3480156104f457600080fd5b5061050f600480360381019061050a9190612cf8565b610f52565b005b34801561051d57600080fd5b5061053860048036038101906105339190612821565b610f77565b60405161054591906127c9565b60405180910390f35b61056860048036038101906105639190612993565b610fe0565b005b34801561057657600080fd5b50610591600480360381019061058c9190612d7b565b61119e565b60405161059e919061271e565b60405180910390f35b3480156105b357600080fd5b506105ce60048036038101906105c991906129d3565b611232565b005b3480156105dc57600080fd5b506105f760048036038101906105f29190612821565b6112b8565b604051610608959493929190612dbb565b60405180910390f35b60007f780e9d63000000000000000000000000000000000000000000000000000000007bffffffffffffffffffffffffffffffffffffffffffffffffffffffff1916827bffffffffffffffffffffffffffffffffffffffffffffffffffffffff1916148061068457506106838261130e565b5b9050919050565b60606000805461069a90612e3d565b80601f01602080910402602001604051908101604052809291908181526020018280546106c690612e3d565b80156107135780601f106106e857610100808354040283529160200191610713565b820191906000526020600020905b8154815290600101906020018083116106f657829003601f168201915b5050505050905090565b6000610728826113f0565b5061073282611478565b9050919050565b61074b82826107466114b5565b6114bd565b5050565b6000600880549050905090565b600073ffffffffffffffffffffffffffffffffffffffff168273ffffffffffffffffffffffffffffffffffffffff16036107ce5760006040517f64a0ae920000000000000000000000000000000000000000000000000000000081526004016107c5919061288f565b60405180910390fd5b60006107e283836107dd6114b5565b6114cf565b90508373ffffffffffffffffffffffffffffffffffffffff168173ffffffffffffffffffffffffffffffffffffffff1614610858578382826040517f64283d7b00000000000000000000000000000000000000000000000000000000815260040161084f93929190612e6e565b60405180910390fd5b50505050565b600061086983610ad8565b82106108ae5782826040517fa57d13dc0000000000000000000000000000000000000000000000000000000081526004016108a5929190612ea5565b60405180910390fd5b600660008473ffffffffffffffffffffffffffffffffffffffff1673ffffffffffffffffffffffffffffffffffffffff168152602001908152602001600020600083815260200190815260200160002054905092915050565b61092283838360405180602001604052806000815250610f52565b505050565b6000600b600081548092919061093c90612efd565b9190505590506040518060a001604052808281526020013373ffffffffffffffffffffffffffffffffffffffff16815260200184815260200183815260200184815250600c60008381526020019081526020016000206000820151816000015560208201518160010160006101000a81548173ffffffffffffffffffffffffffffffffffffffff021916908373ffffffffffffffffffffffffffffffffffffffff160217905550604082015181600201556060820151816003015560808201518160040155905050610a0e33826115ec565b7f2c479e2e638a3a97a6f194336f17f298b4ec7145f37c7d35ff6346f9cd4a003081338585604051610a439493929190612f45565b60405180910390a1505050565b6000610a5a61074f565b8210610aa0576000826040517fa57d13dc000000000000000000000000000000000000000000000000000000008152600401610a97929190612ea5565b60405180910390fd5b60088281548110610ab457610ab3612f8a565b5b90600052602060002001549050919050565b6000610ad1826113f0565b9050919050565b60008073ffffffffffffffffffffffffffffffffffffffff168273ffffffffffffffffffffffffffffffffffffffff1603610b4b5760006040517f89c62b64000000000000000000000000000000000000000000000000000000008152600401610b42919061288f565b60405180910390fd5b600360008373ffffffffffffffffffffffffffffffffffffffff1673ffffffffffffffffffffffffffffffffffffffff168152602001908152602001600020549050919050565b6000600c6000848152602001908152602001600020905060008211610bec576040517f08c379a0000000000000000000000000000000000000000000000000000000008152600401610be39061302b565b60405180910390fd5b80600401548160020154610c00919061304b565b821115610c42576040517f08c379a0000000000000000000000000000000000000000000000000000000008152600401610c39906130cb565b60405180910390fd5b6000816003015483610c5491906130eb565b905082826004016000828254610c6a919061312d565b925050819055503373ffffffffffffffffffffffffffffffffffffffff166108fc829081150290604051600060405180830381858888f19350505050158015610cb7573d6000803e3d6000fd5b507f020b3b58be062ec1c9172f245d8d4ce46426e1d5afcea9019acac5786cdc269d84338584604051610ced9493929190612f45565b60405180910390a150505050565b610d036116e5565b610d0d600061176c565b565b600b5481565b6000600a60009054906101000a900473ffffffffffffffffffffffffffffffffffffffff16905090565b606060018054610d4e90612e3d565b80601f0160208091040260200160405190810160405280929190818152602001828054610d7a90612e3d565b8015610dc75780601f10610d9c57610100808354040283529160200191610dc7565b820191906000526020600020905b815481529060010190602001808311610daa57829003601f168201915b5050505050905090565b610de3610ddc6114b5565b8383611832565b5050565b60606000600b5467ffffffffffffffff811115610e0757610e06612bcd565b5b604051908082528060200260200182016040528015610e4057816020015b610e2d612625565b815260200190600190039081610e255790505b5090506000805b600b54811015610f46576000600c6000838152602001908152602001600020600401541115610f3957600c60008281526020019081526020016000206040518060a0016040529081600082015481526020016001820160009054906101000a900473ffffffffffffffffffffffffffffffffffffffff1673ffffffffffffffffffffffffffffffffffffffff1673ffffffffffffffffffffffffffffffffffffffff1681526020016002820154815260200160038201548152602001600482015481525050838381518110610f1f57610f1e612f8a565b5b60200260200101819052508180610f3590612efd565b9250505b8080600101915050610e47565b50808252819250505090565b610f5d84848461075c565b610f71610f686114b5565b858585856119a1565b50505050565b6060610f82826113f0565b506000610f8d611b52565b90506000815111610fad5760405180602001604052806000815250610fd8565b80610fb784611b69565b604051602001610fc892919061319d565b6040516020818303038152906040525b915050919050565b6000600c600084815260200190815260200160002090506000821161103a576040517f08c379a00000000000000000000000000000000000000000000000000000000081526004016110319061302b565b60405180910390fd5b8060040154821115611081576040517f08c379a00000000000000000000000000000000000000000000000000000000081526004016110789061320d565b60405180910390fd5b600081600301548361109391906130eb565b90508034146110d7576040517f08c379a00000000000000000000000000000000000000000000000000000000081526004016110ce90613279565b60405180910390fd5b8160010160009054906101000a900473ffffffffffffffffffffffffffffffffffffffff1673ffffffffffffffffffffffffffffffffffffffff166108fc829081150290604051600060405180830381858888f19350505050158015611141573d6000803e3d6000fd5b5082826004016000828254611156919061304b565b925050819055507fa09ee622b528975b330f6a8b76649135b6cd75be9b28a394a116b8dadbda878084338560405161119093929190613299565b60405180910390a150505050565b6000600560008473ffffffffffffffffffffffffffffffffffffffff1673ffffffffffffffffffffffffffffffffffffffff16815260200190815260200160002060008373ffffffffffffffffffffffffffffffffffffffff1673ffffffffffffffffffffffffffffffffffffffff16815260200190815260200160002060009054906101000a900460ff16905092915050565b61123a6116e5565b600073ffffffffffffffffffffffffffffffffffffffff168173ffffffffffffffffffffffffffffffffffffffff16036112ac5760006040517f1e4fbdf70000000000000000000000000000000000000000000000000000000081526004016112a3919061288f565b60405180910390fd5b6112b58161176c565b50565b600c6020528060005260406000206000915090508060000154908060010160009054906101000a900473ffffffffffffffffffffffffffffffffffffffff16908060020154908060030154908060040154905085565b60007f80ac58cd000000000000000000000000000000000000000000000000000000007bffffffffffffffffffffffffffffffffffffffffffffffffffffffff1916827bffffffffffffffffffffffffffffffffffffffffffffffffffffffff191614806113d957507f5b5e139f000000000000000000000000000000000000000000000000000000007bffffffffffffffffffffffffffffffffffffffffffffffffffffffff1916827bffffffffffffffffffffffffffffffffffffffffffffffffffffffff1916145b806113e957506113e882611c37565b5b9050919050565b6000806113fc83611ca1565b9050600073ffffffffffffffffffffffffffffffffffffffff168173ffffffffffffffffffffffffffffffffffffffff160361146f57826040517f7e2732890000000000000000000000000000000000000000000000000000000081526004016114669190612925565b60405180910390fd5b80915050919050565b60006004600083815260200190815260200160002060009054906101000a900473ffffffffffffffffffffffffffffffffffffffff169050919050565b600033905090565b6114ca8383836001611cde565b505050565b6000806114dd858585611ea3565b9050600073ffffffffffffffffffffffffffffffffffffffff168173ffffffffffffffffffffffffffffffffffffffff16036115215761151c846120bd565b611560565b8473ffffffffffffffffffffffffffffffffffffffff168173ffffffffffffffffffffffffffffffffffffffff161461155f5761155e8185612106565b5b5b600073ffffffffffffffffffffffffffffffffffffffff168573ffffffffffffffffffffffffffffffffffffffff16036115a25761159d846121f1565b6115e1565b8473ffffffffffffffffffffffffffffffffffffffff168173ffffffffffffffffffffffffffffffffffffffff16146115e0576115df85856122c2565b5b5b809150509392505050565b600073ffffffffffffffffffffffffffffffffffffffff168273ffffffffffffffffffffffffffffffffffffffff160361165e5760006040517f64a0ae92000000000000000000000000000000000000000000000000000000008152600401611655919061288f565b60405180910390fd5b600061166c838360006114cf565b9050600073ffffffffffffffffffffffffffffffffffffffff168173ffffffffffffffffffffffffffffffffffffffff16146116e05760006040517f73c6ac6e0000000000000000000000000000000000000000000000000000000081526004016116d7919061288f565b60405180910390fd5b505050565b6116ed6114b5565b73ffffffffffffffffffffffffffffffffffffffff1661170b610d15565b73ffffffffffffffffffffffffffffffffffffffff161461176a5761172e6114b5565b6040517f118cdaa7000000000000000000000000000000000000000000000000000000008152600401611761919061288f565b60405180910390fd5b565b6000600a60009054906101000a900473ffffffffffffffffffffffffffffffffffffffff16905081600a60006101000a81548173ffffffffffffffffffffffffffffffffffffffff021916908373ffffffffffffffffffffffffffffffffffffffff1602179055508173ffffffffffffffffffffffffffffffffffffffff168173ffffffffffffffffffffffffffffffffffffffff167f8be0079c531659141344cd1fd0a4f28419497f9722a3daafe3b4186f6b6457e060405160405180910390a35050565b600073ffffffffffffffffffffffffffffffffffffffff168273ffffffffffffffffffffffffffffffffffffffff16036118a357816040517f5b08ba1800000000000000000000000000000000000000000000000000000000815260040161189a919061288f565b60405180910390fd5b80600560008573ffffffffffffffffffffffffffffffffffffffff1673ffffffffffffffffffffffffffffffffffffffff16815260200190815260200160002060008473ffffffffffffffffffffffffffffffffffffffff1673ffffffffffffffffffffffffffffffffffffffff16815260200190815260200160002060006101000a81548160ff0219169083151502179055508173ffffffffffffffffffffffffffffffffffffffff168373ffffffffffffffffffffffffffffffffffffffff167f17307eab39ab6107e8899845ad3d59bd9653f200f220920489ca2b5937696c3183604051611994919061271e565b60405180910390a3505050565b60008373ffffffffffffffffffffffffffffffffffffffff163b1115611b4b578273ffffffffffffffffffffffffffffffffffffffff1663150b7a02868685856040518563ffffffff1660e01b8152600401611a009493929190613325565b6020604051808303816000875af1925050508015611a3c57506040513d601f19601f82011682018060405250810190611a399190613386565b60015b611ac0573d8060008114611a6c576040519150601f19603f3d011682016040523d82523d6000602084013e611a71565b606091505b506000815103611ab857836040517f64a0ae92000000000000000000000000000000000000000000000000000000008152600401611aaf919061288f565b60405180910390fd5b805181602001fd5b63150b7a0260e01b7bffffffffffffffffffffffffffffffffffffffffffffffffffffffff1916817bffffffffffffffffffffffffffffffffffffffffffffffffffffffff191614611b4957836040517f64a0ae92000000000000000000000000000000000000000000000000000000008152600401611b40919061288f565b60405180910390fd5b505b5050505050565b606060405180602001604052806000815250905090565b606060006001611b788461234d565b01905060008167ffffffffffffffff811115611b9757611b96612bcd565b5b6040519080825280601f01601f191660200182016040528015611bc95781602001600182028036833780820191505090505b509050600082602001820190505b600115611c2c578080600190039150507f3031323334353637383961626364656600000000000000000000000000000000600a86061a8153600a8581611c2057611c1f6133b3565b5b04945060008503611bd7575b819350505050919050565b60007f01ffc9a7000000000000000000000000000000000000000000000000000000007bffffffffffffffffffffffffffffffffffffffffffffffffffffffff1916827bffffffffffffffffffffffffffffffffffffffffffffffffffffffff1916149050919050565b60006002600083815260200190815260200160002060009054906101000a900473ffffffffffffffffffffffffffffffffffffffff169050919050565b8080611d175750600073ffffffffffffffffffffffffffffffffffffffff168273ffffffffffffffffffffffffffffffffffffffff1614155b15611e4b576000611d27846113f0565b9050600073ffffffffffffffffffffffffffffffffffffffff168373ffffffffffffffffffffffffffffffffffffffff1614158015611d9257508273ffffffffffffffffffffffffffffffffffffffff168173ffffffffffffffffffffffffffffffffffffffff1614155b8015611da55750611da3818461119e565b155b15611de757826040517fa9fbf51f000000000000000000000000000000000000000000000000000000008152600401611dde919061288f565b60405180910390fd5b8115611e4957838573ffffffffffffffffffffffffffffffffffffffff168273ffffffffffffffffffffffffffffffffffffffff167f8c5be1e5ebec7d5bd14f71427d1e84f3dd0314c0f7b2291e5b200ac8c7c3b92560405160405180910390a45b505b836004600085815260200190815260200160002060006101000a81548173ffffffffffffffffffffffffffffffffffffffff021916908373ffffffffffffffffffffffffffffffffffffffff16021790555050505050565b600080611eaf84611ca1565b9050600073ffffffffffffffffffffffffffffffffffffffff168373ffffffffffffffffffffffffffffffffffffffff1614611ef157611ef08184866124a0565b5b600073ffffffffffffffffffffffffffffffffffffffff168173ffffffffffffffffffffffffffffffffffffffff1614611f8257611f33600085600080611cde565b6001600360008373ffffffffffffffffffffffffffffffffffffffff1673ffffffffffffffffffffffffffffffffffffffff168152602001908152602001600020600082825403925050819055505b600073ffffffffffffffffffffffffffffffffffffffff168573ffffffffffffffffffffffffffffffffffffffff1614612005576001600360008773ffffffffffffffffffffffffffffffffffffffff1673ffffffffffffffffffffffffffffffffffffffff168152602001908152602001600020600082825401925050819055505b846002600086815260200190815260200160002060006101000a81548173ffffffffffffffffffffffffffffffffffffffff021916908373ffffffffffffffffffffffffffffffffffffffff160217905550838573ffffffffffffffffffffffffffffffffffffffff168273ffffffffffffffffffffffffffffffffffffffff167fddf252ad1be2c89b69c2b068fc378daa952ba7f163c4a11628f55a4df523b3ef60405160405180910390a4809150509392505050565b6008805490506009600083815260200190815260200160002081905550600881908060018154018082558091505060019003906000526020600020016000909190919091505550565b600061211183610ad8565b90506000600760008481526020019081526020016000205490506000600660008673ffffffffffffffffffffffffffffffffffffffff1673ffffffffffffffffffffffffffffffffffffffff16815260200190815260200160002090508282146121bd5760008160008581526020019081526020016000205490508082600085815260200190815260200160002081905550826007600083815260200190815260200160002081905550505b6007600085815260200190815260200160002060009055806000848152602001908152602001600020600090555050505050565b60006001600880549050612205919061304b565b905060006009600084815260200190815260200160002054905060006008838154811061223557612234612f8a565b5b90600052602060002001549050806008838154811061225757612256612f8a565b5b9060005260206000200181905550816009600083815260200190815260200160002081905550600960008581526020019081526020016000206000905560088054806122a6576122a56133e2565b5b6001900381819060005260206000200160009055905550505050565b600060016122cf84610ad8565b6122d9919061304b565b905081600660008573ffffffffffffffffffffffffffffffffffffffff1673ffffffffffffffffffffffffffffffffffffffff168152602001908152602001600020600083815260200190815260200160002081905550806007600084815260200190815260200160002081905550505050565b600080600090507a184f03e93ff9f4daa797ed6e38ed64bf6a1f01000000000000000083106123ab577a184f03e93ff9f4daa797ed6e38ed64bf6a1f01000000000000000083816123a1576123a06133b3565b5b0492506040810190505b6d04ee2d6d415b85acef810000000083106123e8576d04ee2d6d415b85acef810000000083816123de576123dd6133b3565b5b0492506020810190505b662386f26fc10000831061241757662386f26fc10000838161240d5761240c6133b3565b5b0492506010810190505b6305f5e1008310612440576305f5e1008381612436576124356133b3565b5b0492506008810190505b612710831061246557612710838161245b5761245a6133b3565b5b0492506004810190505b60648310612488576064838161247e5761247d6133b3565b5b0492506002810190505b600a8310612497576001810190505b80915050919050565b6124ab838383612564565b61255f57600073ffffffffffffffffffffffffffffffffffffffff168373ffffffffffffffffffffffffffffffffffffffff160361252057806040517f7e2732890000000000000000000000000000000000000000000000000000000081526004016125179190612925565b60405180910390fd5b81816040517f177e802f000000000000000000000000000000000000000000000000000000008152600401612556929190612ea5565b60405180910390fd5b505050565b60008073ffffffffffffffffffffffffffffffffffffffff168373ffffffffffffffffffffffffffffffffffffffff161415801561261c57508273ffffffffffffffffffffffffffffffffffffffff168473ffffffffffffffffffffffffffffffffffffffff1614806125dd57506125dc848461119e565b5b8061261b57508273ffffffffffffffffffffffffffffffffffffffff1661260383611478565b73ffffffffffffffffffffffffffffffffffffffff16145b5b90509392505050565b6040518060a0016040528060008152602001600073ffffffffffffffffffffffffffffffffffffffff1681526020016000815260200160008152602001600081525090565b6000604051905090565b600080fd5b600080fd5b60007fffffffff0000000000000000000000000000000000000000000000000000000082169050919050565b6126b38161267e565b81146126be57600080fd5b50565b6000813590506126d0816126aa565b92915050565b6000602082840312156126ec576126eb612674565b5b60006126fa848285016126c1565b91505092915050565b60008115159050919050565b61271881612703565b82525050565b6000602082019050612733600083018461270f565b92915050565b600081519050919050565b600082825260208201905092915050565b60005b83811015612773578082015181840152602081019050612758565b60008484015250505050565b6000601f19601f8301169050919050565b600061279b82612739565b6127a58185612744565b93506127b5818560208601612755565b6127be8161277f565b840191505092915050565b600060208201905081810360008301526127e38184612790565b905092915050565b6000819050919050565b6127fe816127eb565b811461280957600080fd5b50565b60008135905061281b816127f5565b92915050565b60006020828403121561283757612836612674565b5b60006128458482850161280c565b91505092915050565b600073ffffffffffffffffffffffffffffffffffffffff82169050919050565b60006128798261284e565b9050919050565b6128898161286e565b82525050565b60006020820190506128a46000830184612880565b92915050565b6128b38161286e565b81146128be57600080fd5b50565b6000813590506128d0816128aa565b92915050565b600080604083850312156128ed576128ec612674565b5b60006128fb858286016128c1565b925050602061290c8582860161280c565b9150509250929050565b61291f816127eb565b82525050565b600060208201905061293a6000830184612916565b92915050565b60008060006060848603121561295957612958612674565b5b6000612967868287016128c1565b9350506020612978868287016128c1565b92505060406129898682870161280c565b9150509250925092565b600080604083850312156129aa576129a9612674565b5b60006129b88582860161280c565b92505060206129c98582860161280c565b9150509250929050565b6000602082840312156129e9576129e8612674565b5b60006129f7848285016128c1565b91505092915050565b612a0981612703565b8114612a1457600080fd5b50565b600081359050612a2681612a00565b92915050565b60008060408385031215612a4357612a42612674565b5b6000612a51858286016128c1565b9250506020612a6285828601612a17565b9150509250929050565b600081519050919050565b600082825260208201905092915050565b6000819050602082019050919050565b612aa1816127eb565b82525050565b612ab08161286e565b82525050565b60a082016000820151612acc6000850182612a98565b506020820151612adf6020850182612aa7565b506040820151612af26040850182612a98565b506060820151612b056060850182612a98565b506080820151612b186080850182612a98565b50505050565b6000612b2a8383612ab6565b60a08301905092915050565b6000602082019050919050565b6000612b4e82612a6c565b612b588185612a77565b9350612b6383612a88565b8060005b83811015612b94578151612b7b8882612b1e565b9750612b8683612b36565b925050600181019050612b67565b5085935050505092915050565b60006020820190508181036000830152612bbb8184612b43565b905092915050565b600080fd5b600080fd5b7f4e487b7100000000000000000000000000000000000000000000000000000000600052604160045260246000fd5b612c058261277f565b810181811067ffffffffffffffff82111715612c2457612c23612bcd565b5b80604052505050565b6000612c3761266a565b9050612c438282612bfc565b919050565b600067ffffffffffffffff821115612c6357612c62612bcd565b5b612c6c8261277f565b9050602081019050919050565b82818337600083830152505050565b6000612c9b612c9684612c48565b612c2d565b905082815260208101848484011115612cb757612cb6612bc8565b5b612cc2848285612c79565b509392505050565b600082601f830112612cdf57612cde612bc3565b5b8135612cef848260208601612c88565b91505092915050565b60008060008060808587031215612d1257612d11612674565b5b6000612d20878288016128c1565b9450506020612d31878288016128c1565b9350506040612d428782880161280c565b925050606085013567ffffffffffffffff811115612d6357612d62612679565b5b612d6f87828801612cca565b91505092959194509250565b60008060408385031215612d9257612d91612674565b5b6000612da0858286016128c1565b9250506020612db1858286016128c1565b9150509250929050565b600060a082019050612dd06000830188612916565b612ddd6020830187612880565b612dea6040830186612916565b612df76060830185612916565b612e046080830184612916565b9695505050505050565b7f4e487b7100000000000000000000000000000000000000000000000000000000600052602260045260246000fd5b60006002820490506001821680612e5557607f821691505b602082108103612e6857612e67612e0e565b5b50919050565b6000606082019050612e836000830186612880565b612e906020830185612916565b612e9d6040830184612880565b949350505050565b6000604082019050612eba6000830185612880565b612ec76020830184612916565b9392505050565b7f4e487b7100000000000000000000000000000000000000000000000000000000600052601160045260246000fd5b6000612f08826127eb565b91507fffffffffffffffffffffffffffffffffffffffffffffffffffffffffffffffff8203612f3a57612f39612ece565b5b600182019050919050565b6000608082019050612f5a6000830187612916565b612f676020830186612880565b612f746040830185612916565b612f816060830184612916565b95945050505050565b7f4e487b7100000000000000000000000000000000000000000000000000000000600052603260045260246000fd5b7f4672616374696f6e73206d7573742062652067726561746572207468616e207a60008201527f65726f0000000000000000000000000000000000000000000000000000000000602082015250565b6000613015602383612744565b915061302082612fb9565b604082019050919050565b6000602082019050818103600083015261304481613008565b9050919050565b6000613056826127eb565b9150613061836127eb565b925082820390508181111561307957613078612ece565b5b92915050565b7f596f7520646f6e2774206f776e20656e6f756768206672616374696f6e730000600082015250565b60006130b5601e83612744565b91506130c08261307f565b602082019050919050565b600060208201905081810360008301526130e4816130a8565b9050919050565b60006130f6826127eb565b9150613101836127eb565b925082820261310f816127eb565b9150828204841483151761312657613125612ece565b5b5092915050565b6000613138826127eb565b9150613143836127eb565b925082820190508082111561315b5761315a612ece565b5b92915050565b600081905092915050565b600061317782612739565b6131818185613161565b9350613191818560208601612755565b80840191505092915050565b60006131a9828561316c565b91506131b5828461316c565b91508190509392505050565b7f4e6f7420656e6f756768206672616374696f6e7320617661696c61626c650000600082015250565b60006131f7601e83612744565b9150613202826131c1565b602082019050919050565b60006020820190508181036000830152613226816131ea565b9050919050565b7f496e636f72726563742045746865722073656e74000000000000000000000000600082015250565b6000613263601483612744565b915061326e8261322d565b602082019050919050565b6000602082019050818103600083015261329281613256565b9050919050565b60006060820190506132ae6000830186612916565b6132bb6020830185612880565b6132c86040830184612916565b949350505050565b600081519050919050565b600082825260208201905092915050565b60006132f7826132d0565b61330181856132db565b9350613311818560208601612755565b61331a8161277f565b840191505092915050565b600060808201905061333a6000830187612880565b6133476020830186612880565b6133546040830185612916565b818103606083015261336681846132ec565b905095945050505050565b600081519050613380816126aa565b92915050565b60006020828403121561339c5761339b612674565b5b60006133aa84828501613371565b91505092915050565b7f4e487b7100000000000000000000000000000000000000000000000000000000600052601260045260246000fd5b7f4e487b7100000000000000000000000000000000000000000000000000000000600052603160045260246000fdfea26469706673582212206961deec89dc3966a4b0beef39795ea83b6c1f924248832736fbe895ba2226c264736f6c634300081c0033",
  "linkReferences": {},
  "deployedLinkReferences": {}
}